{
  "_format": "hh-sol-artifact-1",
  "contractName": "TokenSale",
  "sourceName": "contracts/TokenSale.sol",
  "abi": [
    {
      "inputs": [
        {
          "internalType": "contract Dark",
          "name": "_token",
          "type": "address"
        }
      ],
      "stateMutability": "nonpayable",
      "type": "constructor"
    },
    {
      "inputs": [],
      "name": "admin",
      "outputs": [
        {
          "internalType": "address",
          "name": "",
          "type": "address"
        }
      ],
      "stateMutability": "view",
      "type": "function"
    },
    {
      "inputs": [
        {
          "internalType": "uint256",
          "name": "_amount",
          "type": "uint256"
        }
      ],
      "name": "buyToken",
      "outputs": [],
      "stateMutability": "payable",
      "type": "function"
    },
    {
      "inputs": [
        {
          "internalType": "uint256",
          "name": "_newPrice",
          "type": "uint256"
        }
      ],
      "name": "changeTokenPrice",
      "outputs": [],
      "stateMutability": "nonpayable",
      "type": "function"
    },
    {
      "inputs": [
        {
          "internalType": "uint256",
          "name": "_amount",
          "type": "uint256"
        }
      ],
      "name": "getPrice",
      "outputs": [
        {
          "internalType": "uint256",
          "name": "",
          "type": "uint256"
        }
      ],
      "stateMutability": "view",
      "type": "function"
    },
    {
      "inputs": [],
      "name": "getTokenSupply",
      "outputs": [
        {
          "internalType": "uint256",
          "name": "",
          "type": "uint256"
        }
      ],
      "stateMutability": "view",
      "type": "function"
    },
    {
      "inputs": [],
      "name": "token",
      "outputs": [
        {
          "internalType": "contract Dark",
          "name": "",
          "type": "address"
        }
      ],
      "stateMutability": "view",
      "type": "function"
    },
    {
      "inputs": [],
      "name": "tokenPrice",
      "outputs": [
        {
          "internalType": "uint256",
          "name": "",
          "type": "uint256"
        }
      ],
      "stateMutability": "view",
      "type": "function"
    }
  ],
  "bytecode": "0x608060405266038d7ea4c680006002553480156200001c57600080fd5b5060405162000fec38038062000fec8339818101604052810190620000429190620001f8565b80600160006101000a81548173ffffffffffffffffffffffffffffffffffffffff021916908373ffffffffffffffffffffffffffffffffffffffff160217905550336000806101000a81548173ffffffffffffffffffffffffffffffffffffffff021916908373ffffffffffffffffffffffffffffffffffffffff1602179055506200010e6040518060400160405280601681526020017f546f6b656e53616c6520696e7374616e746961746564000000000000000000008152506200011560201b620006211760201c565b506200034e565b620001b5816040516024016200012c919062000265565b6040516020818303038152906040527f41304fac000000000000000000000000000000000000000000000000000000007bffffffffffffffffffffffffffffffffffffffffffffffffffffffff19166020820180517bffffffffffffffffffffffffffffffffffffffffffffffffffffffff8381831617835250505050620001b860201b60201c565b50565b60008151905060006a636f6e736f6c652e6c6f679050602083016000808483855afa5050505050565b600081519050620001f28162000334565b92915050565b6000602082840312156200020b57600080fd5b60006200021b84828501620001e1565b91505092915050565b6000620002318262000289565b6200023d818562000294565b93506200024f818560208601620002ed565b6200025a8162000323565b840191505092915050565b6000602082019050818103600083015262000281818462000224565b905092915050565b600081519050919050565b600082825260208201905092915050565b6000620002b282620002cd565b9050919050565b6000620002c682620002a5565b9050919050565b600073ffffffffffffffffffffffffffffffffffffffff82169050919050565b60005b838110156200030d578082015181840152602081019050620002f0565b838111156200031d576000848401525b50505050565b6000601f19601f8301169050919050565b6200033f81620002b9565b81146200034b57600080fd5b50565b610c8e806200035e6000396000f3fe6080604052600436106100705760003560e01c8063e75722301161004e578063e7572230146100e7578063f851a44014610124578063fbc94f241461014f578063fc0c546a1461017857610070565b80632d296bf1146100755780637ff9b59614610091578063ad974f4c146100bc575b600080fd5b61008f600480360381019061008a91906107e7565b6101a3565b005b34801561009d57600080fd5b506100a661047b565b6040516100b39190610a19565b60405180910390f35b3480156100c857600080fd5b506100d1610481565b6040516100de9190610a19565b60405180910390f35b3480156100f357600080fd5b5061010e600480360381019061010991906107e7565b610528565b60405161011b9190610a19565b60405180910390f35b34801561013057600080fd5b5061013961053f565b6040516101469190610908565b60405180910390f35b34801561015b57600080fd5b50610176600480360381019061017191906107e7565b610563565b005b34801561018457600080fd5b5061018d6105fb565b60405161019a919061094c565b60405180910390f35b61028c6040518060400160405280600f81526020017f627579546f6b656e2063616c6c65640000000000000000000000000000000000815250600160009054906101000a900473ffffffffffffffffffffffffffffffffffffffff1673ffffffffffffffffffffffffffffffffffffffff166370a08231306040518263ffffffff1660e01b81526004016102379190610908565b60206040518083038186803b15801561024f57600080fd5b505afa158015610263573d6000803e3d6000fd5b505050506040513d601f19601f820116820180604052508101906102879190610810565b6106ba565b80600160009054906101000a900473ffffffffffffffffffffffffffffffffffffffff1673ffffffffffffffffffffffffffffffffffffffff166370a08231306040518263ffffffff1660e01b81526004016102e89190610908565b60206040518083038186803b15801561030057600080fd5b505afa158015610314573d6000803e3d6000fd5b505050506040513d601f19601f820116820180604052508101906103389190610810565b1015610379576040517f08c379a0000000000000000000000000000000000000000000000000000000008152600401610370906109f9565b60405180910390fd5b600254816103879190610a50565b34146103c8576040517f08c379a00000000000000000000000000000000000000000000000000000000081526004016103bf906109b9565b60405180910390fd5b600160009054906101000a900473ffffffffffffffffffffffffffffffffffffffff1673ffffffffffffffffffffffffffffffffffffffff1663a9059cbb33836040518363ffffffff1660e01b8152600401610425929190610923565b602060405180830381600087803b15801561043f57600080fd5b505af1158015610453573d6000803e3d6000fd5b505050506040513d601f19601f8201168201806040525081019061047791906107be565b5050565b60025481565b6000600160009054906101000a900473ffffffffffffffffffffffffffffffffffffffff1673ffffffffffffffffffffffffffffffffffffffff166318160ddd6040518163ffffffff1660e01b815260040160206040518083038186803b1580156104eb57600080fd5b505afa1580156104ff573d6000803e3d6000fd5b505050506040513d601f19601f820116820180604052508101906105239190610810565b905090565b6000600254826105389190610a50565b9050919050565b60008054906101000a900473ffffffffffffffffffffffffffffffffffffffff1681565b60008054906101000a900473ffffffffffffffffffffffffffffffffffffffff1673ffffffffffffffffffffffffffffffffffffffff163373ffffffffffffffffffffffffffffffffffffffff16146105f1576040517f08c379a00000000000000000000000000000000000000000000000000000000081526004016105e8906109d9565b60405180910390fd5b8060028190555050565b600160009054906101000a900473ffffffffffffffffffffffffffffffffffffffff1681565b6106b7816040516024016106359190610967565b6040516020818303038152906040527f41304fac000000000000000000000000000000000000000000000000000000007bffffffffffffffffffffffffffffffffffffffffffffffffffffffff19166020820180517bffffffffffffffffffffffffffffffffffffffffffffffffffffffff8381831617835250505050610756565b50565b61075282826040516024016106d0929190610989565b6040516020818303038152906040527f9710a9d0000000000000000000000000000000000000000000000000000000007bffffffffffffffffffffffffffffffffffffffffffffffffffffffff19166020820180517bffffffffffffffffffffffffffffffffffffffffffffffffffffffff8381831617835250505050610756565b5050565b60008151905060006a636f6e736f6c652e6c6f679050602083016000808483855afa5050505050565b60008151905061078e81610c2a565b92915050565b6000813590506107a381610c41565b92915050565b6000815190506107b881610c41565b92915050565b6000602082840312156107d057600080fd5b60006107de8482850161077f565b91505092915050565b6000602082840312156107f957600080fd5b600061080784828501610794565b91505092915050565b60006020828403121561082257600080fd5b6000610830848285016107a9565b91505092915050565b61084281610aaa565b82525050565b61085181610af2565b82525050565b600061086282610a34565b61086c8185610a3f565b935061087c818560208601610b16565b61088581610b78565b840191505092915050565b600061089d601283610a3f565b91506108a882610b89565b602082019050919050565b60006108c0602183610a3f565b91506108cb82610bb2565b604082019050919050565b60006108e3601183610a3f565b91506108ee82610c01565b602082019050919050565b61090281610ae8565b82525050565b600060208201905061091d6000830184610839565b92915050565b60006040820190506109386000830185610839565b61094560208301846108f9565b9392505050565b60006020820190506109616000830184610848565b92915050565b600060208201905081810360008301526109818184610857565b905092915050565b600060408201905081810360008301526109a38185610857565b90506109b260208301846108f9565b9392505050565b600060208201905081810360008301526109d281610890565b9050919050565b600060208201905081810360008301526109f2816108b3565b9050919050565b60006020820190508181036000830152610a12816108d6565b9050919050565b6000602082019050610a2e60008301846108f9565b92915050565b600081519050919050565b600082825260208201905092915050565b6000610a5b82610ae8565b9150610a6683610ae8565b9250817fffffffffffffffffffffffffffffffffffffffffffffffffffffffffffffffff0483118215151615610a9f57610a9e610b49565b5b828202905092915050565b6000610ab582610ac8565b9050919050565b60008115159050919050565b600073ffffffffffffffffffffffffffffffffffffffff82169050919050565b6000819050919050565b6000610afd82610b04565b9050919050565b6000610b0f82610ac8565b9050919050565b60005b83811015610b34578082015181840152602081019050610b19565b83811115610b43576000848401525b50505050565b7f4e487b7100000000000000000000000000000000000000000000000000000000600052601160045260246000fd5b6000601f19601f8301169050919050565b7f496e636f7272656374204554482073656e740000000000000000000000000000600082015250565b7f4f6e6c792061646d696e2063616e206368616e676520746f6b656e207072696360008201527f6500000000000000000000000000000000000000000000000000000000000000602082015250565b7f4e6f7420656e6f75676820746f6b656e73000000000000000000000000000000600082015250565b610c3381610abc565b8114610c3e57600080fd5b50565b610c4a81610ae8565b8114610c5557600080fd5b5056fea26469706673582212202151c7c2e0ff2632801e7ce96cdc46aad3fd2403c4a910e1c30337ec2a086ac464736f6c63430008040033",
  "linkReferences": {},
  "deployedLinkReferences": {}
}