{
  "_format": "hh-sol-artifact-1",
  "contractName": "Dark",
  "sourceName": "contracts/Dark.sol",
  "abi": [
    {
      "inputs": [],
      "stateMutability": "nonpayable",
      "type": "constructor"
    },
    {
      "anonymous": false,
      "inputs": [
        {
          "indexed": true,
          "internalType": "address",
          "name": "owner",
          "type": "address"
        },
        {
          "indexed": true,
          "internalType": "address",
          "name": "spender",
          "type": "address"
        },
        {
          "indexed": false,
          "internalType": "uint256",
          "name": "value",
          "type": "uint256"
        }
      ],
      "name": "Approval",
      "type": "event"
    },
    {
      "anonymous": false,
      "inputs": [
        {
          "indexed": true,
          "internalType": "address",
          "name": "from",
          "type": "address"
        },
        {
          "indexed": true,
          "internalType": "address",
          "name": "to",
          "type": "address"
        },
        {
          "indexed": false,
          "internalType": "uint256",
          "name": "value",
          "type": "uint256"
        }
      ],
      "name": "Transfer",
      "type": "event"
    },
    {
      "inputs": [],
      "name": "admin",
      "outputs": [
        {
          "internalType": "address",
          "name": "",
          "type": "address"
        }
      ],
      "stateMutability": "view",
      "type": "function"
    },
    {
      "inputs": [
        {
          "internalType": "address",
          "name": "owner",
          "type": "address"
        },
        {
          "internalType": "address",
          "name": "spender",
          "type": "address"
        }
      ],
      "name": "allowance",
      "outputs": [
        {
          "internalType": "uint256",
          "name": "",
          "type": "uint256"
        }
      ],
      "stateMutability": "view",
      "type": "function"
    },
    {
      "inputs": [
        {
          "internalType": "address",
          "name": "spender",
          "type": "address"
        },
        {
          "internalType": "uint256",
          "name": "amount",
          "type": "uint256"
        }
      ],
      "name": "approve",
      "outputs": [
        {
          "internalType": "bool",
          "name": "",
          "type": "bool"
        }
      ],
      "stateMutability": "nonpayable",
      "type": "function"
    },
    {
      "inputs": [
        {
          "internalType": "address",
          "name": "account",
          "type": "address"
        }
      ],
      "name": "balanceOf",
      "outputs": [
        {
          "internalType": "uint256",
          "name": "",
          "type": "uint256"
        }
      ],
      "stateMutability": "view",
      "type": "function"
    },
    {
      "inputs": [],
      "name": "decimals",
      "outputs": [
        {
          "internalType": "uint8",
          "name": "",
          "type": "uint8"
        }
      ],
      "stateMutability": "view",
      "type": "function"
    },
    {
      "inputs": [
        {
          "internalType": "address",
          "name": "spender",
          "type": "address"
        },
        {
          "internalType": "uint256",
          "name": "subtractedValue",
          "type": "uint256"
        }
      ],
      "name": "decreaseAllowance",
      "outputs": [
        {
          "internalType": "bool",
          "name": "",
          "type": "bool"
        }
      ],
      "stateMutability": "nonpayable",
      "type": "function"
    },
    {
      "inputs": [
        {
          "internalType": "address",
          "name": "spender",
          "type": "address"
        },
        {
          "internalType": "uint256",
          "name": "addedValue",
          "type": "uint256"
        }
      ],
      "name": "increaseAllowance",
      "outputs": [
        {
          "internalType": "bool",
          "name": "",
          "type": "bool"
        }
      ],
      "stateMutability": "nonpayable",
      "type": "function"
    },
    {
      "inputs": [
        {
          "internalType": "address",
          "name": "_to",
          "type": "address"
        },
        {
          "internalType": "uint256",
          "name": "_amount",
          "type": "uint256"
        }
      ],
      "name": "mint",
      "outputs": [],
      "stateMutability": "nonpayable",
      "type": "function"
    },
    {
      "inputs": [],
      "name": "name",
      "outputs": [
        {
          "internalType": "string",
          "name": "",
          "type": "string"
        }
      ],
      "stateMutability": "view",
      "type": "function"
    },
    {
      "inputs": [],
      "name": "symbol",
      "outputs": [
        {
          "internalType": "string",
          "name": "",
          "type": "string"
        }
      ],
      "stateMutability": "view",
      "type": "function"
    },
    {
      "inputs": [],
      "name": "totalSupply",
      "outputs": [
        {
          "internalType": "uint256",
          "name": "",
          "type": "uint256"
        }
      ],
      "stateMutability": "view",
      "type": "function"
    },
    {
      "inputs": [
        {
          "internalType": "address",
          "name": "to",
          "type": "address"
        },
        {
          "internalType": "uint256",
          "name": "amount",
          "type": "uint256"
        }
      ],
      "name": "transfer",
      "outputs": [
        {
          "internalType": "bool",
          "name": "",
          "type": "bool"
        }
      ],
      "stateMutability": "nonpayable",
      "type": "function"
    },
    {
      "inputs": [
        {
          "internalType": "address",
          "name": "from",
          "type": "address"
        },
        {
          "internalType": "address",
          "name": "to",
          "type": "address"
        },
        {
          "internalType": "uint256",
          "name": "amount",
          "type": "uint256"
        }
      ],
      "name": "transferFrom",
      "outputs": [
        {
          "internalType": "bool",
          "name": "",
          "type": "bool"
        }
      ],
      "stateMutability": "nonpayable",
      "type": "function"
    }
  ],
  "bytecode": "0x60806040523480156200001157600080fd5b506040518060400160405280600981526020017f4461726b546f6b656e00000000000000000000000000000000000000000000008152506040518060400160405280600481526020017f4441524b00000000000000000000000000000000000000000000000000000000815250816003908051906020019062000096929190620002b3565b508060049080519060200190620000af929190620002b3565b50505033600560006101000a81548173ffffffffffffffffffffffffffffffffffffffff021916908373ffffffffffffffffffffffffffffffffffffffff1602179055506200012a600560009054906101000a900473ffffffffffffffffffffffffffffffffffffffff16620186a06200013060201b60201c565b6200050f565b600073ffffffffffffffffffffffffffffffffffffffff168273ffffffffffffffffffffffffffffffffffffffff161415620001a3576040517f08c379a00000000000000000000000000000000000000000000000000000000081526004016200019a906200039b565b60405180910390fd5b620001b760008383620002a960201b60201c565b8060026000828254620001cb9190620003eb565b92505081905550806000808473ffffffffffffffffffffffffffffffffffffffff1673ffffffffffffffffffffffffffffffffffffffff1681526020019081526020016000206000828254620002229190620003eb565b925050819055508173ffffffffffffffffffffffffffffffffffffffff16600073ffffffffffffffffffffffffffffffffffffffff167fddf252ad1be2c89b69c2b068fc378daa952ba7f163c4a11628f55a4df523b3ef83604051620002899190620003bd565b60405180910390a3620002a560008383620002ae60201b60201c565b5050565b505050565b505050565b828054620002c19062000452565b90600052602060002090601f016020900481019282620002e5576000855562000331565b82601f106200030057805160ff191683800117855562000331565b8280016001018555821562000331579182015b828111156200033057825182559160200191906001019062000313565b5b50905062000340919062000344565b5090565b5b808211156200035f57600081600090555060010162000345565b5090565b600062000372601f83620003da565b91506200037f82620004e6565b602082019050919050565b620003958162000448565b82525050565b60006020820190508181036000830152620003b68162000363565b9050919050565b6000602082019050620003d460008301846200038a565b92915050565b600082825260208201905092915050565b6000620003f88262000448565b9150620004058362000448565b9250827fffffffffffffffffffffffffffffffffffffffffffffffffffffffffffffffff038211156200043d576200043c62000488565b5b828201905092915050565b6000819050919050565b600060028204905060018216806200046b57607f821691505b60208210811415620004825762000481620004b7565b5b50919050565b7f4e487b7100000000000000000000000000000000000000000000000000000000600052601160045260246000fd5b7f4e487b7100000000000000000000000000000000000000000000000000000000600052602260045260246000fd5b7f45524332303a206d696e7420746f20746865207a65726f206164647265737300600082015250565b6116bf806200051f6000396000f3fe608060405234801561001057600080fd5b50600436106100cf5760003560e01c806340c10f191161008c578063a457c2d711610066578063a457c2d714610228578063a9059cbb14610258578063dd62ed3e14610288578063f851a440146102b8576100cf565b806340c10f19146101be57806370a08231146101da57806395d89b411461020a576100cf565b806306fdde03146100d4578063095ea7b3146100f257806318160ddd1461012257806323b872dd14610140578063313ce56714610170578063395093511461018e575b600080fd5b6100dc6102d6565b6040516100e991906110f3565b60405180910390f35b61010c60048036038101906101079190610ed1565b610368565b60405161011991906110d8565b60405180910390f35b61012a61038b565b6040516101379190611235565b60405180910390f35b61015a60048036038101906101559190610e82565b610395565b60405161016791906110d8565b60405180910390f35b6101786103c4565b6040516101859190611250565b60405180910390f35b6101a860048036038101906101a39190610ed1565b6103cd565b6040516101b591906110d8565b60405180910390f35b6101d860048036038101906101d39190610ed1565b610477565b005b6101f460048036038101906101ef9190610e1d565b610515565b6040516102019190611235565b60405180910390f35b61021261055d565b60405161021f91906110f3565b60405180910390f35b610242600480360381019061023d9190610ed1565b6105ef565b60405161024f91906110d8565b60405180910390f35b610272600480360381019061026d9190610ed1565b6106d9565b60405161027f91906110d8565b60405180910390f35b6102a2600480360381019061029d9190610e46565b6106fc565b6040516102af9190611235565b60405180910390f35b6102c0610783565b6040516102cd91906110bd565b60405180910390f35b6060600380546102e590611365565b80601f016020809104026020016040519081016040528092919081815260200182805461031190611365565b801561035e5780601f106103335761010080835404028352916020019161035e565b820191906000526020600020905b81548152906001019060200180831161034157829003601f168201915b5050505050905090565b6000806103736107a9565b90506103808185856107b1565b600191505092915050565b6000600254905090565b6000806103a06107a9565b90506103ad85828561097c565b6103b8858585610a08565b60019150509392505050565b60006012905090565b6000806103d86107a9565b905061046c818585600160008673ffffffffffffffffffffffffffffffffffffffff1673ffffffffffffffffffffffffffffffffffffffff16815260200190815260200160002060008973ffffffffffffffffffffffffffffffffffffffff1673ffffffffffffffffffffffffffffffffffffffff168152602001908152602001600020546104679190611287565b6107b1565b600191505092915050565b600560009054906101000a900473ffffffffffffffffffffffffffffffffffffffff1673ffffffffffffffffffffffffffffffffffffffff163373ffffffffffffffffffffffffffffffffffffffff1614610507576040517f08c379a00000000000000000000000000000000000000000000000000000000081526004016104fe90611195565b60405180910390fd5b6105118282610c89565b5050565b60008060008373ffffffffffffffffffffffffffffffffffffffff1673ffffffffffffffffffffffffffffffffffffffff168152602001908152602001600020549050919050565b60606004805461056c90611365565b80601f016020809104026020016040519081016040528092919081815260200182805461059890611365565b80156105e55780601f106105ba576101008083540402835291602001916105e5565b820191906000526020600020905b8154815290600101906020018083116105c857829003601f168201915b5050505050905090565b6000806105fa6107a9565b90506000600160008373ffffffffffffffffffffffffffffffffffffffff1673ffffffffffffffffffffffffffffffffffffffff16815260200190815260200160002060008673ffffffffffffffffffffffffffffffffffffffff1673ffffffffffffffffffffffffffffffffffffffff168152602001908152602001600020549050838110156106c0576040517f08c379a00000000000000000000000000000000000000000000000000000000081526004016106b7906111f5565b60405180910390fd5b6106cd82868684036107b1565b60019250505092915050565b6000806106e46107a9565b90506106f1818585610a08565b600191505092915050565b6000600160008473ffffffffffffffffffffffffffffffffffffffff1673ffffffffffffffffffffffffffffffffffffffff16815260200190815260200160002060008373ffffffffffffffffffffffffffffffffffffffff1673ffffffffffffffffffffffffffffffffffffffff16815260200190815260200160002054905092915050565b600560009054906101000a900473ffffffffffffffffffffffffffffffffffffffff1681565b600033905090565b600073ffffffffffffffffffffffffffffffffffffffff168373ffffffffffffffffffffffffffffffffffffffff161415610821576040517f08c379a0000000000000000000000000000000000000000000000000000000008152600401610818906111d5565b60405180910390fd5b600073ffffffffffffffffffffffffffffffffffffffff168273ffffffffffffffffffffffffffffffffffffffff161415610891576040517f08c379a000000000000000000000000000000000000000000000000000000000815260040161088890611135565b60405180910390fd5b80600160008573ffffffffffffffffffffffffffffffffffffffff1673ffffffffffffffffffffffffffffffffffffffff16815260200190815260200160002060008473ffffffffffffffffffffffffffffffffffffffff1673ffffffffffffffffffffffffffffffffffffffff168152602001908152602001600020819055508173ffffffffffffffffffffffffffffffffffffffff168373ffffffffffffffffffffffffffffffffffffffff167f8c5be1e5ebec7d5bd14f71427d1e84f3dd0314c0f7b2291e5b200ac8c7c3b9258360405161096f9190611235565b60405180910390a3505050565b600061098884846106fc565b90507fffffffffffffffffffffffffffffffffffffffffffffffffffffffffffffffff8114610a0257818110156109f4576040517f08c379a00000000000000000000000000000000000000000000000000000000081526004016109eb90611155565b60405180910390fd5b610a0184848484036107b1565b5b50505050565b600073ffffffffffffffffffffffffffffffffffffffff168373ffffffffffffffffffffffffffffffffffffffff161415610a78576040517f08c379a0000000000000000000000000000000000000000000000000000000008152600401610a6f906111b5565b60405180910390fd5b600073ffffffffffffffffffffffffffffffffffffffff168273ffffffffffffffffffffffffffffffffffffffff161415610ae8576040517f08c379a0000000000000000000000000000000000000000000000000000000008152600401610adf90611115565b60405180910390fd5b610af3838383610de9565b60008060008573ffffffffffffffffffffffffffffffffffffffff1673ffffffffffffffffffffffffffffffffffffffff16815260200190815260200160002054905081811015610b79576040517f08c379a0000000000000000000000000000000000000000000000000000000008152600401610b7090611175565b60405180910390fd5b8181036000808673ffffffffffffffffffffffffffffffffffffffff1673ffffffffffffffffffffffffffffffffffffffff16815260200190815260200160002081905550816000808573ffffffffffffffffffffffffffffffffffffffff1673ffffffffffffffffffffffffffffffffffffffff1681526020019081526020016000206000828254610c0c9190611287565b925050819055508273ffffffffffffffffffffffffffffffffffffffff168473ffffffffffffffffffffffffffffffffffffffff167fddf252ad1be2c89b69c2b068fc378daa952ba7f163c4a11628f55a4df523b3ef84604051610c709190611235565b60405180910390a3610c83848484610dee565b50505050565b600073ffffffffffffffffffffffffffffffffffffffff168273ffffffffffffffffffffffffffffffffffffffff161415610cf9576040517f08c379a0000000000000000000000000000000000000000000000000000000008152600401610cf090611215565b60405180910390fd5b610d0560008383610de9565b8060026000828254610d179190611287565b92505081905550806000808473ffffffffffffffffffffffffffffffffffffffff1673ffffffffffffffffffffffffffffffffffffffff1681526020019081526020016000206000828254610d6c9190611287565b925050819055508173ffffffffffffffffffffffffffffffffffffffff16600073ffffffffffffffffffffffffffffffffffffffff167fddf252ad1be2c89b69c2b068fc378daa952ba7f163c4a11628f55a4df523b3ef83604051610dd19190611235565b60405180910390a3610de560008383610dee565b5050565b505050565b505050565b600081359050610e028161165b565b92915050565b600081359050610e1781611672565b92915050565b600060208284031215610e2f57600080fd5b6000610e3d84828501610df3565b91505092915050565b60008060408385031215610e5957600080fd5b6000610e6785828601610df3565b9250506020610e7885828601610df3565b9150509250929050565b600080600060608486031215610e9757600080fd5b6000610ea586828701610df3565b9350506020610eb686828701610df3565b9250506040610ec786828701610e08565b9150509250925092565b60008060408385031215610ee457600080fd5b6000610ef285828601610df3565b9250506020610f0385828601610e08565b9150509250929050565b610f16816112dd565b82525050565b610f25816112ef565b82525050565b6000610f368261126b565b610f408185611276565b9350610f50818560208601611332565b610f59816113f5565b840191505092915050565b6000610f71602383611276565b9150610f7c82611406565b604082019050919050565b6000610f94602283611276565b9150610f9f82611455565b604082019050919050565b6000610fb7601d83611276565b9150610fc2826114a4565b602082019050919050565b6000610fda602683611276565b9150610fe5826114cd565b604082019050919050565b6000610ffd601383611276565b91506110088261151c565b602082019050919050565b6000611020602583611276565b915061102b82611545565b604082019050919050565b6000611043602483611276565b915061104e82611594565b604082019050919050565b6000611066602583611276565b9150611071826115e3565b604082019050919050565b6000611089601f83611276565b915061109482611632565b602082019050919050565b6110a88161131b565b82525050565b6110b781611325565b82525050565b60006020820190506110d26000830184610f0d565b92915050565b60006020820190506110ed6000830184610f1c565b92915050565b6000602082019050818103600083015261110d8184610f2b565b905092915050565b6000602082019050818103600083015261112e81610f64565b9050919050565b6000602082019050818103600083015261114e81610f87565b9050919050565b6000602082019050818103600083015261116e81610faa565b9050919050565b6000602082019050818103600083015261118e81610fcd565b9050919050565b600060208201905081810360008301526111ae81610ff0565b9050919050565b600060208201905081810360008301526111ce81611013565b9050919050565b600060208201905081810360008301526111ee81611036565b9050919050565b6000602082019050818103600083015261120e81611059565b9050919050565b6000602082019050818103600083015261122e8161107c565b9050919050565b600060208201905061124a600083018461109f565b92915050565b600060208201905061126560008301846110ae565b92915050565b600081519050919050565b600082825260208201905092915050565b60006112928261131b565b915061129d8361131b565b9250827fffffffffffffffffffffffffffffffffffffffffffffffffffffffffffffffff038211156112d2576112d1611397565b5b828201905092915050565b60006112e8826112fb565b9050919050565b60008115159050919050565b600073ffffffffffffffffffffffffffffffffffffffff82169050919050565b6000819050919050565b600060ff82169050919050565b60005b83811015611350578082015181840152602081019050611335565b8381111561135f576000848401525b50505050565b6000600282049050600182168061137d57607f821691505b60208210811415611391576113906113c6565b5b50919050565b7f4e487b7100000000000000000000000000000000000000000000000000000000600052601160045260246000fd5b7f4e487b7100000000000000000000000000000000000000000000000000000000600052602260045260246000fd5b6000601f19601f8301169050919050565b7f45524332303a207472616e7366657220746f20746865207a65726f206164647260008201527f6573730000000000000000000000000000000000000000000000000000000000602082015250565b7f45524332303a20617070726f766520746f20746865207a65726f20616464726560008201527f7373000000000000000000000000000000000000000000000000000000000000602082015250565b7f45524332303a20696e73756666696369656e7420616c6c6f77616e6365000000600082015250565b7f45524332303a207472616e7366657220616d6f756e742065786365656473206260008201527f616c616e63650000000000000000000000000000000000000000000000000000602082015250565b7f4f6e6c792061646d696e2063616e206d696e7400000000000000000000000000600082015250565b7f45524332303a207472616e736665722066726f6d20746865207a65726f20616460008201527f6472657373000000000000000000000000000000000000000000000000000000602082015250565b7f45524332303a20617070726f76652066726f6d20746865207a65726f2061646460008201527f7265737300000000000000000000000000000000000000000000000000000000602082015250565b7f45524332303a2064656372656173656420616c6c6f77616e63652062656c6f7760008201527f207a65726f000000000000000000000000000000000000000000000000000000602082015250565b7f45524332303a206d696e7420746f20746865207a65726f206164647265737300600082015250565b611664816112dd565b811461166f57600080fd5b50565b61167b8161131b565b811461168657600080fd5b5056fea26469706673582212209fa3b650630dfa90095dd00f4406d6e9af857ef7b2444582cafeac99bd83d3cb64736f6c63430008040033",
  "linkReferences": {},
  "deployedLinkReferences": {}
}